:0400000007EF00F016
:0A0008007E828EED18F0B7EF16F0BF
:1010000000414443205465737400506F74313A209A
:1010100000506F74323A2000506F74333A20005001
:101020006F74343A2000257500002850D96EDA6AB2
:10103000DECF2AF0DECF2BF0DECF2CF02AC0F6FF79
:101040002BC0F7FF2CC0F8FF0800F550250AD8A4E4
:101050002CEF08F02EEF08F0E8EF0BF02850D96ED7
:10106000DA6ADE2A000EDE22DE22000E6F6E000E2D
:101070006E6E6EC074F070687168000E2F6E82EF35
:1010800008F074802850D96EDA6ADE2A000EDE225B
:10109000DE2282EF08F0748242EF08F0748442EF9F
:1010A00008F0748642EF08F0748842EF08F0010EF1
:1010B0002F6E82EF08F02850D96EDA6ADECF2AF060
:1010C000DECF2BF0DECF2CF02AC0F6FF2BC0F7FFCF
:1010D0002CC0F8FF0800F550200AD8B451EF08F0F2
:1010E000030AD8B454EF08F0080AD8B44EEF08F059
:1010F000060AD8B441EF08F01D0AD8B44BEF08F047
:1011000057EF08F02F50D8B488EF08F08AEF08F0B6
:101110005BEF08F074A08FEF08F091EF08F092EF0A
:1011200008F0749228C007F029C008F046EC12F0CD
:1011300007C06EF008C06FF06FBEA3EF08F0A1EF1C
:1011400008F0A8EF08F074806E6C6F1ED8B06F2A9C
:101150002850D96EDA6ADECF2AF0DECF2BF0DECF50
:101160002CF02AC0F6FF2BC0F7FF2CC0F8FF0800B8
:10117000F5502E0AD8A4BFEF08F0C1EF08F0D2EF67
:1011800008F02850D96EDA6ADE2A000EDE22DE224E
:1011900028C007F029C008F046EC12F007C070F034
:1011A00008C071F02850D96EDA6ADECF2AF0DECF9F
:1011B0002BF0DECF2CF02AC0F6FF2BC0F7FF2CC09F
:1011C000F8FF0800F550630AD8A4E9EF08F0EBEF48
:1011D00008F008EF09F02850D96EDA6ADE2A000E0E
:1011E000DE22DE222950D96EDA6ADF50DF2ADF2ABA
:1011F000D96EDA6ADF50346E27C009F034C00AF0C5
:10120000AFEC12F009C027F00AC028F008EF0CF08C
:101210002850D96EDA6ADECF35F0DECF36F0DDCF7A
:1012200037F035C0F6FF36C0F7FF37C0F8FF0800CB
:10123000F5CF34F044EF09F0010E3526000E3622CA
:10124000000E372235C0F6FF36C0F7FF37C0F8FF73
:101250000800F550680AD8A430EF09F032EF09F021
:101260006FEF09F0480E346E010E3526000E36225F
:10127000000E37226FEF09F0690E346E6FEF09F040
:10128000000E346E6FEF09F03450580AD8B43CEFBA
:1012900009F03C0AD8B43CEF09F00C0AD8B41CEFB2
:1012A00009F0010AD8B43CEF09F0070AD8B43CEFC2
:1012B00009F0010AD8B43CEF09F01B0AD8B434EFA6
:1012C00009F0010AD8B43CEF09F00D0AD8B43CEF9C
:1012D00009F0020AD8B434EF09F040EF09F035C044
:1012E000F6FF36C0F7FF37C0F8FF0800F550640A74
:1012F000D8B47DEF09F07FEF09F0D8EF09F035C0E1
:10130000F6FF36C0F7FF37C0F8FF0800F550690A4E
:10131000D8A48DEF09F08FEF09F015EF0AF0D8EFA0
:1013200009F02950D96EDA6A020EDF26DF5CD96E29
:10133000DA6ADECF30F0DECF31F0EFEF09F029507E
:10134000D96EDA6A020EDF26DF5CD96EDA6ADECF8A
:1013500030F0DECF31F0EFEF09F02950D96EDA6AC4
:10136000DF50DF2ADF2AD96EDA6ADF50306E316A49
:1013700030BE3106EFEF09F02950D96EDA6A020E5D
:10138000DF26DF5CD96EDA6ADECF30F0DECF31F0F7
:10139000EFEF09F02950D96EDA6A020EDF26DF5C22
:1013A000D96EDA6ADECF30F0DECF31F0EFEF09F040
:1013B0003450480AD8B4ADEF09F0200AD8B49FEFF2
:1013C00009F0010AD8B491EF09F01D0AD8B4BCEFB6
:1013D00009F00E0AD8B4CAEF09F0EFEF09F0010ED8
:1013E0002A6E000E2B6E2A5035242C6E2B50362080
:1013F0002D6E000E2BBEFF0E37202E6E2850D96E9C
:10140000DA6A2CC0DEFF2DC0DEFF2EC0DEFF27C053
:1014100015F030C016F031C017F002EC0EF015C018
:1014200027F016C028F008EF0CF035C0F6FF36C0E4
:10143000F7FF37C0F8FF0800F550780AD8B423EF5B
:101440000AF025EF0AF09EEF0AF035C0F6FF36C02D
:10145000F7FF37C0F8FF0800F550580AD8B433EF4B
:101460000AF035EF0AF09EEF0AF035C0F6FF36C0FD
:10147000F7FF37C0F8FF0800F5506F0AD8B443EF04
:101480000AF045EF0AF09EEF0AF035C0F6FF36C0CD
:10149000F7FF37C0F8FF0800F550750AD8A453EFDE
:1014A0000AF055EF0AF01CEF0BF09EEF0AF02950FE
:1014B000D96EDA6A020EDF26DF5CD96EDA6ADECF19
:1014C00030F0DECF31F0B5EF0AF02950D96EDA6A8C
:1014D000020EDF26DF5CD96EDA6ADECF30F0DECFB7
:1014E00031F0B5EF0AF02950D96EDA6ADF50DF2A01
:1014F000DF2AD96EDA6ADF502A6E2A50306E316ADE
:10150000B5EF0AF02950D96EDA6A020EDF26DF5CE9
:10151000D96EDA6ADECF30F0DECF31F0B5EF0AF007
:101520002950D96EDA6A020EDF26DF5CD96EDA6ADC
:10153000DECF30F0DECF31F0B5EF0AF03450480A9C
:10154000D8B473EF0AF0200AD8B465EF0AF0010AA4
:10155000D8B457EF0AF01D0AD8B482EF0AF00E0A89
:10156000D8B490EF0AF0B5EF0AF0010E2A6E000E23
:101570002B6E2A5035242C6E2B5036202D6E000EEB
:101580002BBEFF0E37202E6E2850D96EDA6A2CC083
:10159000DEFF2DC0DEFF2EC0DEFF02EF0BF027C006
:1015A00015F030C016F031C017F0ECEC0EF015C09D
:1015B00027F016C028F008EF0CF027C015F030C057
:1015C00016F031C017F0C8EC10F015C027F016C0A7
:1015D00028F008EF0CF027C015F030C016F031C02D
:1015E00017F035C0F6FF36C0F7FF37C0F8FF080028
:1015F000F5CF18F009EC0CF015C027F016C028F054
:1016000008EF0CF035C0F6FF36C0F7FF37C0F8FF23
:101610000800F550580AD8B4EBEF0AF0370AD8B4EE
:10162000CFEF0AF01A0AD8B4DDEF0AF00D0AD8B4E9
:10163000EBEF0AF01CEF0BF035C0F6FF36C0F7FFFA
:1016400037C0F8FF0800F5506E0AD8A42AEF0BF057
:101650002CEF0BF0B1EF0BF07CEF0BF02950D96EB3
:10166000DA6ADF50DF2AD96EDA6ADF50D96EDA6AB9
:101670006CC0DEFF6DC0DDFF93EF0BF02950D96E1B
:10168000DA6ADF50DF2AD96EDA6ADF50D96EDA6A99
:101690006CC0DEFF6DC0DDFF93EF0BF02950D96EFB
:1016A000DA6ADF50DF2AD96EDA6ADF50D96EDA6A79
:1016B0006CC0DFFF93EF0BF02950D96EDA6ADF5070
:1016C000DF2AD96EDA6ADF50D96EDA6A6CC0DEFFC3
:1016D0006DC0DDFF93EF0BF02950D96EDA6ADF5051
:1016E000DF2AD96EDA6ADF50D96EDA6A6CC0DEFFA3
:1016F0006DC0DDFF93EF0BF03450480AD8B44EEFC5
:101700000BF0200AD8B43EEF0BF0010AD8B42EEF4C
:101710000BF01D0AD8B45CEF0BF00E0AD8B46CEFD6
:101720000BF093EF0BF0010E2A6E000E2B6E2A5079
:1017300035242C6E2B5036202D6E000E2BBEFF0E46
:1017400037202E6E2850D96EDA6A2CC0DEFF2DC0ED
:10175000DEFF2EC0DEFF000E286E000E276E08EFA3
:101760000CF02850D96EDA6ADECF2AF0DECF2BF0EB
:10177000DECF2CF02AC0F6FF2BC0F7FF2CC0F8FFFD
:101780000800F550250AD8A4C8EF0BF0CAEF0BF0FB
:10179000DFEF0BF02850D96EDA6ADE2A000EDE2267
:1017A000DE22000E026E250E016E27C003F0CDEC86
:1017B00013F0000E286E010E276E08EF0CF0285073
:1017C000D96EDA6ADE2A000EDE22DE22ABEF0BF0E3
:1017D0002850D96EDA6ADECF2AF0DECF2BF0DECFCA
:1017E0002CF02AC0F6FF2BC0F7FF2CC0F8FF080032
:1017F000F550016E026A27C003F0CDEC13F02850BB
:10180000D96EDA6ADE2A000EDE22DE22D9EF0BF074
:10181000120071BE0EEF0CF010EF0CF011EF0CF097
:10182000749271BE18EF0CF016EF0CF01EEF0CF076
:10183000000E206E010E1F6E22EF0CF070C01FF024
:1018400071C020F06EC021F06FC022F0165017104A
:10185000D8A42DEF0CF030EF0CF0010E31EF0CF0AE
:10186000000E236E74A837EF0CF039EF0CF045EF43
:101870000CF02350D8B43FEF0CF041EF0CF045EFE3
:101880000CF0FE0E2126FF0E2222780E1818D8B476
:101890004CEF0CF04EEF0CF054EF0CF0000E1D6E00
:1018A000410E1C6E58EF0CF0000E1D6E610E1C6E8A
:1018B0001CC01EF0000E266E1F0E256E000E0001CD
:1018C0009F6F94EF0CF02506D8A0260616500F0B3C
:1018D000246E0A0E24606FEF0CF071EF0CF075EFC0
:1018E0000CF0300E242678EF0CF01E50F60F242654
:1018F0002550800FD96EDA6A24C0DFFF1F06D8A0FA
:1019000020062106D8A0220616C019F017C01AF02A
:10191000040E1B6ED8901A3219321B2E8AEF0CF06F
:1019200019C016F01AC017F026BEA0EF0CF0265012
:1019300009E1020E255CD8A0A0EF0CF0A2EF0CF09C
:10194000CCEF0CF016501710D8A4A9EF0CF0ABEFA9
:101950000CF063EF0CF020BEB8EF0CF0205006E165
:101960001F04D8B0B6EF0CF0B8EF0CF063EF0CF03A
:1019700022BEC3EF0CF0225008E12104D8A0C3EF2F
:101980000CF0C5EF0CF0CCEF0CF074B2CAEF0CF019
:10199000CCEF0CF063EF0CF074A8D1EF0CF0D3EFA8
:1019A0000CF0F6EF0CF02350D8B4D9EF0CF0DBEFCD
:1019B0000CF0F6EF0CF070507110D8B4E2EF0CF0B0
:1019C000E4EF0CF0F6EF0CF02506D8A02606255023
:1019D000800FD96EDA6A18C0DFFF2506D8A0260668
:1019E0002550800FD96EDA6A300EDF6E15C00EF00A
:1019F0002550800F0F6E21C010F022C011F073EC43
:101A000014F00EC015F00FC016F01200C5EC18F05F
:101A1000620E146E010E156E1550D8A4100E166EBF
:101A2000010E176E070E186E6EEC17F01A0E576E39
:101A30005E0E566E6E0EE82EFED7562EFCD7572E33
:101A4000FAD700D0620E0A6E010E0B6E4BEC16F048
:101A5000620E146E0A0E156E1550D8A4100E166E76
:101A6000010E176E010E186E6EEC17F0620E146EFA
:101A7000110E156E1550D8A4100E166E020E176EAC
:101A8000010E186E6EEC17F0620E146E180E156EC5
:101A90001550D8A4100E166E030E176E010E186E98
:101AA0006EEC17F0620E146E1F0E156E1550D8A452
:101AB000100E166E040E176E010E186E6EEC17F0F7
:101AC0007550D8A466EF0DF068EF0DF074EF0DF0CF
:101AD000010E756ECC0E056E000E066E7C0E076E46
:101AE000E8EC16F0B2EF0DF07504D8A47AEF0DF023
:101AF0007CEF0DF088EF0DF0020E756ECC0E056ECA
:101B0000010E066E7A0E076EE8EC16F0B2EF0DF0DD
:101B1000020E7518D8A48FEF0DF091EF0DF09DEF28
:101B20000DF0030E756ECC0E056E020E066E780E6D
:101B3000076EE8EC16F0B2EF0DF0030E7518D8A49E
:101B4000A4EF0DF0A6EF0DF0B2EF0DF0000E756EE4
:101B5000CC0E056E030E066E760E076EE8EC16F0E0
:101B6000B2EF0DF07CC053F07DC054F0B20E556E54
:101B700045EC17F07AC053F07BC054F0AC0E556EB4
:101B800045EC17F078C053F079C054F0A60E556EAE
:101B900045EC17F076C053F077C054F0A00E556EA8
:101BA00045EC17F0620E146EB20E156E166A010E39
:101BB000176E070E186E6EEC17F0620E146EAC0EF8
:101BC000156E166A020E176E070E186E6EEC17F081
:101BD000620E146EA60E156E166A030E176E070EB1
:101BE000186E6EEC17F0620E146EA00E156E166A6B
:101BF000040E176E070E186E6EEC17F060EF0DF006
:101C000007EF00F017BE07EF0EF00AEF0EF0010E1F
:101C10000BEF0EF0000E1E6E71BE11EF0EF013EF03
:101C20000EF014EF0EF0749271BE1BEF0EF019EF70
:101C30000EF021EF0EF0000E1B6E010E1A6E25EF56
:101C40000EF070C01AF071C01BF06EC01CF06FC0B7
:101C50001DF01E50D8A42FEF0EF031EF0EF038EF2C
:101C60000EF074A436EF0EF038EF0EF051EF0EF0D8
:101C70001C06D8A01D061E50D8A441EF0EF043EF5D
:101C80000EF049EF0EF0000E196E2B0E186E4DEF90
:101C90000EF0000E196E2D0E186E18C01EF05DEFBE
:101CA0000EF074A656EF0EF058EF0EF05DEF0EF04A
:101CB0001C06D8A01D06200E1E6E000E206E1F0EE4
:101CC0001F6E000E00019F6F94EF0EF01F06D8A04C
:101CD00020061F50800FD96EDA6A16C001F017C0B7
:101CE00002F0000E046E0A0E036E75EC13F001C0D4
:101CF00007F002C008F01DEC18F00750300FDF6E3F
:101D00001A06D8A01B061C06D8A01D0616C001F096
:101D100017C002F0000E046E0A0E036E13EC13F0EF
:101D200001C016F002C017F020BE9FEF0EF0205049
:101D300008E11F04D8A09FEF0EF0A1EF0EF0CBEF4B
:101D40000EF016501710D8A4A8EF0EF0AAEF0EF060
:101D500066EF0EF01BBEB7EF0EF01B5006E11A0443
:101D6000D8B0B5EF0EF0B7EF0EF066EF0EF01DBE77
:101D7000C2EF0EF01D5008E11C04D8A0C2EF0EF017
:101D8000C4EF0EF0CBEF0EF074B2C9EF0EF0CBEF54
:101D90000EF066EF0EF01E50D8B4D1EF0EF0D3EF78
:101DA0000EF0DCEF0EF01F06D8A020061F50800FAB
:101DB000D96EDA6A1EC0DFFF15C00EF01F50800F0B
:101DC0000F6E1CC010F01DC011F073EC14F00EC0AB
:101DD00015F00FC016F0120071BEF1EF0EF0F3EF28
:101DE0000EF0F4EF0EF0749271BEFBEF0EF0F9EF0F
:101DF0000EF001EF0FF0000E1B6E010E1A6E05EFD4
:101E00000FF070C01AF071C01BF06EC01CF06FC0F4
:101E10001DF0000E206E1F0E1F6E000E00019F6F42
:101E2000000E1E6E38EF0FF01F06D8A020061650C9
:101E3000070B1E6E1F50800FD96EDA6A1E50300FCE
:101E4000DF6E1A06D8A01B061C06D8A01D0616C0F9
:101E500018F017C019F0D89019321832D8901932EA
:101E60001832D8901932183218C016F019C017F06D
:101E700020BE43EF0FF0205008E11F04D8A043EF2D
:101E80000FF045EF0FF06FEF0FF016501710D8A4BA
:101E90004CEF0FF04EEF0FF014EF0FF01BBE5BEFA7
:101EA0000FF01B5006E11A04D8B059EF0FF05BEFAA
:101EB0000FF014EF0FF01DBE66EF0FF01D5008E19C
:101EC0001C04D8A066EF0FF068EF0FF06FEF0FF073
:101ED00074B26DEF0FF06FEF0FF014EF0FF01E50B4
:101EE000D8A475EF0FF077EF0FF080EF0FF0705080
:101EF0007110D8A47EEF0FF080EF0FF093EF0FF08A
:101F000074A885EF0FF087EF0FF093EF0FF01F0627
:101F1000D8A020061F50800FD96EDA6A300EDF6E0F
:101F20001C06D8A01D0615C00EF01F50800F0F6EA6
:101F30001CC010F01DC011F073EC14F00EC015F0B1
:101F40000FC016F012000150D8B4A9EF0FF0ABEF9C
:101F50000FF0C9EF0FF00150D96EDA6ADF30E832C6
:101F6000E832070B026E080E0260B9EF0FF0BBEF0C
:101F70000FF0C9EF0FF00150D96EDA6ADF50070B8E
:101F8000026E040E0264C7EF0FF0C9EF0FF01EEFF0
:101F900010F034EF10F00150D96EDA6ADF30E83219
:101FA000E832070B026E010E036E022ADAEF0FF021
:101FB000D8900336022ED8EF0FF00150D96EDA6AAE
:101FC000DF50070B020DF350580FD96EDA6ADECFDF
:101FD00004F0DDCF05F004C0D9FF05C0DAFF0350DF
:101FE000DF12C9EF0FF00150D96EDA6ADF30E83244
:101FF000E832070B026E010E036E022A02EF10F0A8
:10200000D8900336022E00EF10F00350FF0A046E42
:102010000150D96EDA6ADF50070B020DF350580FEA
:10202000D96EDA6ADECF05F0DDCF06F005C0D9FF44
:1020300006C0DAFF0450DF16C9EF0FF00150D96E69
:10204000DA6ADFBC26EF10F029EF10F0010E2AEF5C
:1020500010F0000E000AD8B4F3EF0FF0010AD8B464
:10206000CBEF0FF0C9EF0FF0010E12000150D8B402
:102070003CEF10F03EEF10F05CEF10F00150D96E25
:10208000DA6ADF30E832E832070B036E080E0360CD
:102090004CEF10F04EEF10F05CEF10F00150D96EE5
:1020A000DA6ADF50070B036E040E03645AEF10F078
:1020B0005CEF10F0B1EF10F0C6EF10F00150D96EE8
:1020C000DA6ADF30E832E832070B036E010E046E85
:1020D000032A6DEF10F0D8900436032E6BEF10F04A
:1020E0000450FF0A056E0150D96EDA6ADF50070B03
:1020F000020DF350B80FD96EDA6ADECF06F0DDCFED
:1021000007F006C0D9FF07C0DAFF0550DF165CEF05
:1021100010F00150D96EDA6ADF30E832E832070B8E
:10212000036E010E046E032A98EF10F0D890043667
:10213000032E96EF10F00150D96EDA6ADF50070BCC
:10214000020DF350B80FD96EDA6ADECF05F0DDCF9D
:1021500006F005C0D9FF06C0DAFF0450DF125CEFBD
:1021600010F00250036E046A0450000AD8B4BBEFAA
:1021700010F05CEF10F00350000AD8B45EEF10F0DE
:10218000010AD8B489EF10F05CEF10F0010E1200D4
:1021900071BECDEF10F0CFEF10F0D0EF10F07492D1
:1021A00071BED7EF10F0D5EF10F0DDEF10F0000E9C
:1021B000196E010E186EE1EF10F070C018F071C0CA
:1021C00019F06EC01AF06FC01BF0000E1D6E1F0ECE
:1021D0001C6E000E00019F6F16EF11F01C06D8A0B8
:1021E0001D061C50800FD96EDA6A16C001F017C0A8
:1021F00002F0000E046E0A0E036E85EC16F001501C
:10220000300FDF6E1806D8A019061A06D8A01B06D4
:1022100016C001F017C002F0000E046E0A0E036E25
:10222000D7EC15F001C016F002C017F01C501D10BD
:10223000D8B41DEF11F01FEF11F049EF11F0165057
:102240001710D8A426EF11F028EF11F0EEEF10F0E0
:1022500019BE35EF11F0195006E11804D8B033EF6C
:1022600011F035EF11F0EEEF10F01BBE40EF11F062
:102270001B5008E11A04D8A040EF11F042EF11F012
:1022800049EF11F074B247EF11F049EF11F0EEEFA2
:1022900010F015C00EF01C50800F0F6E1AC010F019
:1022A0001BC011F073EC14F00EC015F00FC016F047
:1022B00012001050D8A45FEF11F061EF11F063EF3E
:1022C00011F0D9EF11F010C008F09AEC15F0146E6F
:1022D0001028086E9AEC15F01416000E136E1050AC
:1022E0001324020F086E9AEC15F01416132A070E29
:1022F00013647DEF11F07FEF11F06FEF11F0030E1B
:10230000126E080E116E770EE82EFED7112EFCD736
:10231000122EFAD7000010C00AF0380E0B6E4BECEC
:1023200016F01416820E116EDE0EE82EFED7112E58
:10233000FCD710C00AF0380E0B6E4BEC16F01416DA
:10234000040E116EE40EE82EFED7112EFCD700D03D
:1023500010C00AF0380E0B6E4BEC16F0141610C0BD
:102360000AF0010E0B6E4BEC16F0141610C00AF0BA
:10237000020E0B6E4BEC16F0141610C00AF0060E8F
:102380000B6E4BEC16F0141610C00AF00C0E0B6E10
:102390004BEC16F0141610C00AF0380E0B6E4BEC16
:1023A00016F0141610C00AF0800E0B6E4BEC16F0EF
:1023B00014161200036E04EF12F0928045EF12F033
:1023C000928245EF12F0928445EF12F0928645EF2B
:1023D00012F0928A45EF12F0968045EF12F0968245
:1023E00045EF12F0968445EF12F0938445EF12F01A
:1023F000938645EF12F0938245EF12F0938845EFF4
:1024000012F0938045EF12F00350016E026A025001
:10241000000AD8B40EEF12F045EF12F00150000A96
:10242000D8B4DDEF11F0010AD8B4E0EF11F0030ADF
:10243000D8B4E3EF11F0010AD8B4E6EF11F0070ABF
:10244000D8B4E9EF11F0010AD8B4ECEF11F0030AA7
:10245000D8B4EFEF11F0010AD8B4F2EF11F00F0A7F
:10246000D8B4F5EF11F0010AD8B4F8EF11F0030A6F
:10247000D8B4FBEF11F0010AD8B4FEEF11F0070A4F
:10248000D8B401EF12F045EF12F01200000E0E6EFC
:10249000000E0D6E0750D96EDA6ADECF09F0DECF7E
:1024A0000AF0DECF0BF009C0F6FF0AC0F7FF0BC041
:1024B000F8FF0800F5502A0AD8A461EF12F063EF84
:1024C00012F08FEF12F00750D96EDA6ADE2A000E92
:1024D000DE22DE220850D96EDA6A020EDF26DF5CC9
:1024E000D96EDA6ADECF0DF0DECF0EF0AAEF12F071
:1024F0000DC001F00EC002F0000E046E0A0E036E55
:102500007BEC18F00C5001240D6E000E02200E6EB4
:102510000750D96EDA6ADE2A000EDE22DE2207506C
:10252000D96EDA6ADECF09F0DECF0AF0DECF0BF02B
:1025300009C0F6FF0AC0F7FF0BC0F8FF0800F5500E
:10254000D00F0C6E090E0C64A8EF12F0AAEF12F077
:1025500078EF12F00DC007F00EC008F012006E50B8
:102560006F10D8A4B6EF12F0B8EF12F0BEEF12F071
:102570006EC00EF06FC00FF0C4EF12F0FF0E6E24AD
:102580000E6EFF0E6F200F6E74A0C9EF12F0CBEF2E
:1025900012F0D2EF12F00AC001F0026A09C003F093
:1025A000CDEC13F00FBED7EF12F0D9EF12F0DBEF46
:1025B00012F0DFEF12F0000E0F6E000E0E6E000E26
:1025C0000D6E000E0C6EEFEF12F0000E026E200E7C
:1025D000016E09C003F0CDEC13F00C4A0D2A0E5029
:1025E0000C5C0D50800A0B6E0F50800A0B58D8A05F
:1025F000FCEF12F0FEEF12F0E5EF12F074B003EF13
:1026000013F005EF13F00CEF13F00AC001F0026AAB
:1026100009C003F0CDEC13F0010E0C24096E000E7E
:102620000D200A6E1200000E066E04BE1CEF13F0A1
:102630001AEF13F022EF13F0036C041ED8B0042A33
:10264000010E066E02BE29EF13F027EF13F02FEFF5
:1026500013F0016C021ED8B0022A010E061A000EF9
:10266000086E000E076E03500410D8B43AEF13F052
:102670003CEF13F064EF13F0010E056E44EF13F01E
:10268000D89003360436052A04AE49EF13F04BEF19
:1026900013F040EF13F0D890073608360350015C72
:1026A00004500258D8A057EF13F059EF13F05EEF23
:1026B00013F00350015E0450025A0780D890043290
:1026C0000332052E4BEF13F00650D8B46AEF13F027
:1026D0006CEF13F070EF13F0076C081ED8B0082AE7
:1026E00007C001F008C002F01200000E066E02BE24
:1026F0007EEF13F07CEF13F084EF13F0016C021EF9
:10270000D8B0022A010E066E04BE8BEF13F089EFDB
:1027100013F08FEF13F0036C041ED8B0042A03509B
:102720000410D8B496EF13F098EF13F0BCEF13F049
:10273000010E056EA0EF13F0D89003360436052A7B
:1027400004AEA5EF13F0A7EF13F09CEF13F00350C6
:10275000015C04500258D8A0B0EF13F0B2EF13F0B0
:10276000B6EF13F00350015E0450025AD8900432C1
:102770000332052EA7EF13F00650D8B4C2EF13F0C2
:10278000C4EF13F0C8EF13F0016C021ED8B0022A98
:1027900001C001F002C002F012000350D8B4D3EF20
:1027A00013F0D5EF13F0DDEF13F00350D8A4DBEFF7
:1027B00013F0DDEF13F0E2EF13F00150D0EC18F05E
:1027C00021EF14F00350D96EDA6A0A0ED926DE50D2
:1027D000DE10D8B4EEEF13F0F0EF13F009EF14F0C1
:1027E0000350D96EDA6A0A0ED9260350E16EE26A06
:1027F000030EE126DE50E65CE650800A086EDE50ED
:10280000800A0858D8B007EF14F009EF14F021EF50
:1028100014F00350D96EDA6A030ED926DF50046E25
:102820000350D96EDA6ADF500424D96EDA6A01C027
:10283000DFFF0350D96EDA6A030ED926DE2A000EB6
:10284000DD2212000450D8A428EF14F02AEF14F06F
:102850002CEF14F072EF14F0C2900450D96EDA6AC3
:10286000040ED926DF50056E054605460546C050C4
:102870000518C70B0518C06E0450D96EDA6A050E2C
:10288000D926DF50056EC0500518F80B0518C06E2C
:102890000450D96EDA6A020ED926DF50056E05465D
:1028A0000546C2500518C30B0518C26E0450D96EF8
:1028B000DA6A020ED926DF50DAEC11F09D8C9E9C6C
:1028C000F28EF28C0450D96EDA6ADECF72F0DDCF70
:1028D00073F004C001F0BDEC17F004C001F096ECF9
:1028E00017F0C280120074A078EF14F07AEF14F0A1
:1028F00080EF14F00FC009F00EC00AF0FFEC17F0E3
:1029000011BE87EF14F085EF14F08BEF14F0000E7A
:10291000116E000E106E000E146E000E136E9BEF03
:1029200014F0000E026E200E016E0EC003F0CDEC0E
:1029300013F0134A142A1050135C1450800A126EBC
:102940001150800A1258D8A0A8EF14F0AAEF14F082
:1029500091EF14F074B0AFEF14F0B1EF14F0B7EFE3
:1029600014F00FC009F00EC00AF0FFEC17F00FC012
:1029700001F04FEC18F0105001240E6E115002209F
:102980000F6E1200010E136E1050D8A4CAEF14F08F
:10299000CCEF14F0F2EF14F011501210D8A4D3EFD2
:1029A00014F0D5EF14F0F2EF14F0010E136E0BEFEC
:1029B00015F010C00AF011C0F6FF12C0F7FF000EAC
:1029C000F86E0F0EF76403D00800F55005D0F6CF6F
:1029D000E9FFF7CFEAFFEF500B6E11EC16F013167C
:1029E000114A122A11C0F6FF12C0F7FF000EF86E4E
:1029F0000F0EF76403D00800F55005D0F6CFE9FFBD
:102A0000F7CFEAFFEF500009D8A409EF15F00BEF5C
:102A100015F0D9EF14F0135012000150D8B413EF91
:102A200015F015EF15F01DEF15F00250D8A41BEFAF
:102A300015F01DEF15F01FEF15F055EF15F03DEFF8
:102A400015F0C450C344E846030B036E046A0250F9
:102A5000D96EDA6A03C0DEFF04C0DDFF55EF15F062
:102A6000C450C350036E046A0250D96EDA6A03C0C0
:102A7000DEFF04C0DDFF55EF15F00150D96EDA6AB4
:102A8000060ED926DFB247EF15F04AEF15F0010E1A
:102A90004BEF15F0000E000AD8B421EF15F0010A33
:102AA000D8B430EF15F021EF15F01200120685EFC3
:102AB00015F010C00AF01250800F0B6E4BEC16F0A0
:102AC000136E98EF15F010C00AF01250C00F0B6E85
:102AD0004BEC16F0136E98EF15F010C00AF0125080
:102AE000940F0B6E4BEC16F0136E98EF15F010C0B0
:102AF0000AF01250D40F0B6E4BEC16F0136E98EFD9
:102B000015F0010E136E98EF15F01150010AD8B4AC
:102B100059EF15F0030AD8B463EF15F0010AD8B4E1
:102B20006DEF15F0070AD8B477EF15F081EF15F0C7
:102B3000135012000850D8B4A0EF15F0A2EF15F012
:102B4000C0EF15F00850D96EDA6ADF30E832E832AB
:102B5000070B096E080E0960B0EF15F0B2EF15F023
:102B6000C0EF15F00850D96EDA6ADF50070B096E16
:102B7000040E0964BEEF15F0C0EF15F0C4EF15F0B8
:102B8000010E0A6ED5EF15F008C001F0A3EC0FF0AE
:102B90000A6E08C001F00850D96EDA6A000EDFBE76
:102BA000010E026E36EC10F00A160A501200000EEA
:102BB000066E000E056E03500410D8B4E2EF15F057
:102BC000E4EF15F00CEF16F0010E076EECEF15F0C8
:102BD000D89003360436072A04AEF1EF15F0F3EF70
:102BE00015F0E8EF15F0D890053606360350015C75
:102BF00004500258D8A0FFEF15F001EF16F006EFD1
:102C000016F00350015E0450025A0580D890043239
:102C10000332072EF3EF15F005C001F006C002F0F5
:102C200012000A50D8A417EF16F019EF16F01DEF96
:102C300016F0010E0E6E49EF16F00AC001F0010EFB
:102C4000026E36EC10F00E6E000E0F6E0A500F245E
:102C5000020F016E0FC00CF00BC00DF00C2A33EF09
:102C600016F0D8900D320C2E31EF16F00D50010BEE
:102C7000026E36EC10F00E160F2A070E0F6443EFAB
:102C800016F045EF16F026EF16F00AC008F066ECD5
:102C900018F00E5012000A50D8A451EF16F053EF5E
:102CA00016F057EF16F0010E0E6E83EF16F00AC005
:102CB00001F0000E026E36EC10F00E6E000E0F6E7C
:102CC0000A500F24020F016E0FC00CF00BC00DF064
:102CD0000C2A6DEF16F0D8900D320C2E6BEF16F01B
:102CE0000D50010B026E36EC10F00E160F2A070E77
:102CF0000F647DEF16F07FEF16F060EF16F00AC05C
:102D000008F066EC18F00E50120003500410D8B40E
:102D10008CEF16F08EEF16F0B2EF16F0010E056E86
:102D200096EF16F0D89003360436052A04AE9BEFD2
:102D300016F09DEF16F092EF16F00350015C045070
:102D40000258D8A0A6EF16F0A8EF16F0ACEF16F0D8
:102D50000350015E0450025AD89004320332052E0B
:102D60009DEF16F001C001F002C002F01200420E09
:102D7000F66E310EF76E000EF86E00EEB8F010EE43
:102D80001BF00900F5CFEEFFE550E150FAE1760EB9
:102D9000F66E310EF76E000EF86E00EE58F010EE83
:102DA00014F00900F5CFEEFFE550E150FAE100EE36
:102DB00080F0380EEE6AE806FDE100EE6CF0120ECF
:102DC000EE6AE806FDE17E907E92000106EF0DF0CE
:102DD0000550D8B4EEEF16F0F0EF16F0F8EF16F05D
:102DE0000750D8A4F6EF16F0F8EF16F0FAEF16F049
:102DF00017EF17F006C008F008460846C25008183A
:102E0000C30B0818C26E0650DAEC11F005C001F0D1
:102E1000AFEC18F0C2B20FEF17F011EF17F00AEF96
:102E200017F005C001F007C002F00DEC15F012001C
:102E300039C03DF03AC03EF03BC03FF0000E6D6E31
:102E4000000E6C6E30EF17F038C027F03D0E286E84
:102E50003CC029F015EC08F027506C2628506D2254
:102E60003DC0F6FF3EC0F7FF3FC0F8FF0800F55039
:102E70000009D8A43EEF17F040EF17F024EF17F049
:102E8000000E396E000E386E12005550D8A44BEF6C
:102E900017F04DEF17F04FEF17F06DEF17F055C02B
:102EA00001F0000E036E000E026E000E056E060E9F
:102EB000046E37EC18F055C040F0260E416E4150BC
:102EC000D8A4100E426E4250D8A4000E436E53C0D8
:102ED00044F054C045F0E1EC17F01200010E196EF9
:102EE0001450D8A476EF17F078EF17F083EF17F0AF
:102EF00015501610D8A47FEF17F081EF17F083EF6D
:102F000017F095EF17F014C010F017C011F018C0AB
:102F100012F056EC15F0191614C010F015C011F08F
:102F200016C012F0C2EC14F019161200A4EF17F03C
:102F3000C188C18ABCEF17F0C198C19ABCEF17F0E5
:102F4000C198C19ABCEF17F00150D96EDA6A060E2B
:102F5000D926DFB0AEEF17F0B1EF17F0010EB2EFE8
:102F600017F0000E000AD8B49CEF17F0010AD8B48D
:102F700098EF17F0A0EF17F01200C8EF17F0C09EFF
:102F8000E0EF17F0C08EE0EF17F0C08EE0EF17F023
:102F90000150D96EDA6A060ED926DFB2D2EF17F0E9
:102FA000D5EF17F0010ED6EF17F0000E000AD8B4D7
:102FB000BFEF17F0010AD8B4C2EF17F0C5EF17F052
:102FC0001200440E526E40C046F0000E4A6E000ED3
:102FD000496E000E516E000E506E460E386E41C0A6
:102FE00039F042C03AF043C03BF0520E3C6E18EC50
:102FF00017F040504924D96EDA6ADF6A1200000ED9
:103000000D6E000E0C6E0EEF18F00BC001F0026A90
:103010000AC003F0CDEC13F00C4A0D2A09500C2421
:10302000D96EDA6ADF500B6E0B50D8A41AEF18F085
:103030001CEF18F005EF18F0120008BE22EF18F090
:1030400024EF18F02AEF18F007C007F008C008F0C6
:1030500036EF18F007C009F008C00AF0091E0A1E72
:10306000094A0A2A09C007F00AC008F0120001C084
:1030700006F041EF18F00650D96EDA6A02C0DFFFA1
:10308000062A0406D8A00506042806E10528D8A4C7
:103090004CEF18F04EEF18F03BEF18F0120001C0A3
:1030A00003F054EF18F0012A0150D96EDA6ADF50AC
:1030B000D8A45DEF18F05FEF18F053EF18F003504D
:1030C000015C016E026A01BE02061200010E096E69
:1030D0000828016E010E026E36EC10F00916210E62
:1030E000E82EFED700000828016E000E026E36ECB6
:1030F00010F00916120001500302F3CF05F0F4CFCF
:1031000006F001500402F350062602500302F35069
:10311000062605C001F006C002F0120006009DACB4
:1031200094EF18F096EF18F09FEF18F09EAC9BEF1D
:1031300018F09DEF18F09FEF18F0CEEC18F07E928B
:103140001100890F8A0F8B0F8C0F8D0F800F810F4D
:0D315000820F830F840F00000000060502AF
:10315E000150D8A4B5EF18F0B7EF18F0B9EF18F08A
:10316E00BAEF18F0C2821200920F930F940F950FC0
:10317E00960F030B020A121A222A323ACC0E046E52
:10318E0022EC14F0620E106E59EC11F012009E9C9F
:04319E001200120009
:020000040030CA
:02000400FF817A
:00000001FF
